{
  "_format": "hh-sol-artifact-1",
  "contractName": "SayGm",
  "sourceName": "contracts/SayGm.sol",
  "abi": [
    {
      "anonymous": false,
      "inputs": [
        {
          "indexed": true,
          "internalType": "address",
          "name": "sender",
          "type": "address"
        },
        {
          "indexed": false,
          "internalType": "string",
          "name": "message",
          "type": "string"
        },
        {
          "indexed": false,
          "internalType": "uint256",
          "name": "timestamp",
          "type": "uint256"
        }
      ],
      "name": "newMessage",
      "type": "event"
    },
    {
      "inputs": [],
      "name": "getMessages",
      "outputs": [
        {
          "components": [
            {
              "internalType": "address",
              "name": "sender",
              "type": "address"
            },
            {
              "internalType": "string",
              "name": "message",
              "type": "string"
            },
            {
              "internalType": "uint256",
              "name": "timestamp",
              "type": "uint256"
            }
          ],
          "internalType": "struct SayGm.gmMessage[]",
          "name": "",
          "type": "tuple[]"
        }
      ],
      "stateMutability": "view",
      "type": "function"
    },
    {
      "inputs": [
        {
          "internalType": "uint256",
          "name": "",
          "type": "uint256"
        }
      ],
      "name": "gmMessages",
      "outputs": [
        {
          "internalType": "address",
          "name": "sender",
          "type": "address"
        },
        {
          "internalType": "string",
          "name": "message",
          "type": "string"
        },
        {
          "internalType": "uint256",
          "name": "timestamp",
          "type": "uint256"
        }
      ],
      "stateMutability": "view",
      "type": "function"
    },
    {
      "inputs": [
        {
          "internalType": "string",
          "name": "message",
          "type": "string"
        }
      ],
      "name": "sayGm",
      "outputs": [],
      "stateMutability": "nonpayable",
      "type": "function"
    }
  ],
  "bytecode": "0x608060405234801561001057600080fd5b50610bce806100206000396000f3fe608060405234801561001057600080fd5b50600436106100415760003560e01c806318bd2634146100465780635ff6cbf314610062578063c7573ce414610080575b600080fd5b610060600480360381019061005b91906104b3565b6100b2565b005b61006a610211565b60405161007791906106fc565b60405180910390f35b61009a6004803603810190610095919061074a565b610362565b6040516100a9939291906107df565b60405180910390f35b600060405180606001604052803373ffffffffffffffffffffffffffffffffffffffff16815260200184848080601f016020809104026020016040519081016040528093929190818152602001838380828437600081840152601f19601f82011690508083019250505050505050815260200142815250908060018154018082558091505060019003906000526020600020906003020160009091909190915060008201518160000160006101000a81548173ffffffffffffffffffffffffffffffffffffffff021916908373ffffffffffffffffffffffffffffffffffffffff16021790555060208201518160010190816101ae9190610a58565b506040820151816002015550503373ffffffffffffffffffffffffffffffffffffffff167fcaf4ba9a3355d3b4552c98c7344da6269208f207fbd6406e4e1d655e92fd3d7683834260405161020593929190610b66565b60405180910390a25050565b60606000805480602002602001604051908101604052809291908181526020016000905b8282101561035957838290600052602060002090600302016040518060600160405290816000820160009054906101000a900473ffffffffffffffffffffffffffffffffffffffff1673ffffffffffffffffffffffffffffffffffffffff1673ffffffffffffffffffffffffffffffffffffffff1681526020016001820180546102be9061087b565b80601f01602080910402602001604051908101604052809291908181526020018280546102ea9061087b565b80156103375780601f1061030c57610100808354040283529160200191610337565b820191906000526020600020905b81548152906001019060200180831161031a57829003601f168201915b5050505050815260200160028201548152505081526020019060010190610235565b50505050905090565b6000818154811061037257600080fd5b90600052602060002090600302016000915090508060000160009054906101000a900473ffffffffffffffffffffffffffffffffffffffff16908060010180546103bb9061087b565b80601f01602080910402602001604051908101604052809291908181526020018280546103e79061087b565b80156104345780601f1061040957610100808354040283529160200191610434565b820191906000526020600020905b81548152906001019060200180831161041757829003601f168201915b5050505050908060020154905083565b600080fd5b600080fd5b600080fd5b600080fd5b600080fd5b60008083601f8401126104735761047261044e565b5b8235905067ffffffffffffffff8111156104905761048f610453565b5b6020830191508360018202830111156104ac576104ab610458565b5b9250929050565b600080602083850312156104ca576104c9610444565b5b600083013567ffffffffffffffff8111156104e8576104e7610449565b5b6104f48582860161045d565b92509250509250929050565b600081519050919050565b600082825260208201905092915050565b6000819050602082019050919050565b600073ffffffffffffffffffffffffffffffffffffffff82169050919050565b60006105578261052c565b9050919050565b6105678161054c565b82525050565b600081519050919050565b600082825260208201905092915050565b60005b838110156105a757808201518184015260208101905061058c565b60008484015250505050565b6000601f19601f8301169050919050565b60006105cf8261056d565b6105d98185610578565b93506105e9818560208601610589565b6105f2816105b3565b840191505092915050565b6000819050919050565b610610816105fd565b82525050565b600060608301600083015161062e600086018261055e565b506020830151848203602086015261064682826105c4565b915050604083015161065b6040860182610607565b508091505092915050565b60006106728383610616565b905092915050565b6000602082019050919050565b600061069282610500565b61069c818561050b565b9350836020820285016106ae8561051c565b8060005b858110156106ea57848403895281516106cb8582610666565b94506106d68361067a565b925060208a019950506001810190506106b2565b50829750879550505050505092915050565b600060208201905081810360008301526107168184610687565b905092915050565b610727816105fd565b811461073257600080fd5b50565b6000813590506107448161071e565b92915050565b6000602082840312156107605761075f610444565b5b600061076e84828501610735565b91505092915050565b6107808161054c565b82525050565b600082825260208201905092915050565b60006107a28261056d565b6107ac8185610786565b93506107bc818560208601610589565b6107c5816105b3565b840191505092915050565b6107d9816105fd565b82525050565b60006060820190506107f46000830186610777565b81810360208301526108068185610797565b905061081560408301846107d0565b949350505050565b7f4e487b7100000000000000000000000000000000000000000000000000000000600052604160045260246000fd5b7f4e487b7100000000000000000000000000000000000000000000000000000000600052602260045260246000fd5b6000600282049050600182168061089357607f821691505b6020821081036108a6576108a561084c565b5b50919050565b60008190508160005260206000209050919050565b60006020601f8301049050919050565b600082821b905092915050565b60006008830261090e7fffffffffffffffffffffffffffffffffffffffffffffffffffffffffffffffff826108d1565b61091886836108d1565b95508019841693508086168417925050509392505050565b6000819050919050565b600061095561095061094b846105fd565b610930565b6105fd565b9050919050565b6000819050919050565b61096f8361093a565b61098361097b8261095c565b8484546108de565b825550505050565b600090565b61099861098b565b6109a3818484610966565b505050565b5b818110156109c7576109bc600082610990565b6001810190506109a9565b5050565b601f821115610a0c576109dd816108ac565b6109e6846108c1565b810160208510156109f5578190505b610a09610a01856108c1565b8301826109a8565b50505b505050565b600082821c905092915050565b6000610a2f60001984600802610a11565b1980831691505092915050565b6000610a488383610a1e565b9150826002028217905092915050565b610a618261056d565b67ffffffffffffffff811115610a7a57610a7961081d565b5b610a84825461087b565b610a8f8282856109cb565b600060209050601f831160018114610ac25760008415610ab0578287015190505b610aba8582610a3c565b865550610b22565b601f198416610ad0866108ac565b60005b82811015610af857848901518255600182019150602085019450602081019050610ad3565b86831015610b155784890151610b11601f891682610a1e565b8355505b6001600288020188555050505b505050505050565b82818337600083830152505050565b6000610b458385610786565b9350610b52838584610b2a565b610b5b836105b3565b840190509392505050565b60006040820190508181036000830152610b81818587610b39565b9050610b9060208301846107d0565b94935050505056fea26469706673582212209716caddb215add3e39612f05b111da2a350ccdcaa4206272d710d33a274804a64736f6c63430008110033",
  "linkReferences": {},
  "deployedLinkReferences": {}
}